S01600002E2F44656275672F5254532D4C61622E73313936
S3152000000000BFDFF814D003F086F904F0E1F903F01D
S3152000001094B9FEE700BF000000C0012080B500AF04
S3152000002001214FF4804006F0B3FE00214FF48040BA
S3152000003006F0AEFE00BF80BD80B483B000AF03469D
S31520000040FB71044AFB79136000BF0C37BD465DF88F
S31520000050047B70470038014080B483B000AF03466C
S31520000060FB71044AFB79136000BF0C37BD465DF86F
S31520000070047B70472000274280B485B000AF03463A
S315200000800A46FB711346BB710023FB60BB7903F064
S3152000009003039B000F2202FA03F3FB60164ABB7987
S315200000A09B08DBB2023352F82320FB68DB4312485D
S315200000B0B9798908C9B21A408B1C40F823200E4A08
S315200000C0BB799B08DBB2023352F82320F979BB793E
S315200000D003F003039B0001FA03F30748B979890863
S315200000E0C9B21A438B1C40F8232000BF1437BD46E3
S315200000F05DF8047B704700BF0038014080B483B0B0
S3152000010000AF7860044A7B68136000BF0C37BD4699
S315200001105DF8047B704700BFDC00274280B483B0C3
S3152000012000AF0346FB71044AFB79136000BF0C370E
S31520000130BD465DF8047B70470004274280B483B037
S3152000014000AF0023FB71094B1B6A03F48073002B5D
S3152000015002D00123FB7101E00023FB71FB791846D5
S315200001600C37BD465DF8047B704700BF0038014060
S3152000017080B582B000AF78607B683B4A934208D155
S315200001800121102006F004FE0021102006F000FEBA
S3152000019065E07B68354A93420AD101214FF400304D
S315200001A006F0D6FD00214FF4003006F0D1FD56E0D2
S315200001B07B682F4A93420AD101214FF4802006F012
S315200001C0C7FD00214FF4802006F0C2FD47E07B6882
S315200001D0284A93420AD101214FF4002006F0B8FDA7
S315200001E000214FF4002006F0B3FD38E07B68224A58
S315200001F093420AD101214FF4801006F0A9FD002177
S315200002004FF4801006F0A4FD29E07B681B4A934238
S3152000021008D10121202006F0BBFD0021202006F078
S31520000220B7FD1CE07B68164A93420AD101214FF0A4
S31520000230804006F08DFD00214FF0804006F088FDBD
S315200002400DE07B680F4A934209D101214FF000400F
S3152000025006F07EFD00214FF0004006F079FD00BF3C
S315200002600837BD4680BD00BF001001400044004055
S3152000027000480040004C004000500040001401405F
S3152000028000780040007C004080B58AB000AF7860DE
S31520000290396000237B6200233B620023FB6100233D
S315200002A0BB617B681B8A9BB27B627B6A23F44053CB
S315200002B07B623B68DB881A467B6A13437B627B6AD8
S315200002C09AB27B681A827B689B899BB27B627B6A27
S315200002D023F4B05323F00C037B623B689A883B6877
S315200002E01B8913439AB23B685B8913439BB21A4618
S315200002F07B6A13437B627B6A9AB27B689A817B68AE
S315200003009B8A9BB27B627B6A23F440737B623B6849
S315200003109B891A467B6A13437B627B6A9AB27B6807
S315200003209A8207F10803184606F05CFA7B68304A81
S31520000330934203D07B682F4A934202D17B693B626A
S3152000034001E03B693B627B689B899BB21BB2002B19
S315200003500CDA3A6A13469B0013449A001A443B6807
S315200003601B685B00B2FBF3F3FB610BE03A6A1346B2
S315200003709B0013449A001A443B681B689B00B2FBFF
S31520000380F3F3FB61FB691C4AA2FB03235B091B01F8
S315200003907B627B6A1B09642202FB03F3FA69D31A88
S315200003A0BB617B689B899BB21BB2002B0CDABB69B5
S315200003B0DB003233104AA2FB03235B0903F0070359
S315200003C07A6A13437B620BE0BB691B0132330A4A0C
S315200003D0A2FB03235B0903F00F037A6A13437B62B4
S315200003E07B6A9AB27B681A8100BF2837BD4680BDDA
S315200003F000100140001401401F85EB5180B483B0EA
S3152000040000AF78607B684FF416521A607B68002232
S315200004109A807B680022DA807B6800221A817B68BA
S315200004200C225A817B6800229A8100BF0C37BD4678
S315200004305DF8047B704780B485B000AF7860396082
S315200004400023FB607B681B8A9BB2FB60FB6823F45E
S315200004507063FB603B681A883B685B8813439AB2DB
S315200004603B689B8813439AB23B68DB8813439BB255
S315200004701A46FB681343FB60FB689AB27B681A82B4
S3152000048000BF1437BD465DF8047B704780B483B047
S3152000049000AF78607B6800221A807B6800225A8031
S315200004A07B6800229A807B680022DA8000BF0C37A6
S315200004B0BD465DF8047B704780B483B000AF78609A
S315200004C00B46FB70FB78002B08D07B689B899BB280
S315200004D043F400539AB27B689A8107E07B689B8934
S315200004E09BB223F400539AB27B689A8100BF0C37E3
S315200004F0BD465DF8047B704780B483B000AF78605A
S315200005000B46FB707B681B8B9BB223F0FF039AB2D2
S315200005107B681A837B681B8B9AB2FB789BB213434A
S315200005209AB27B681A8300BF0C37BD465DF8047B00
S31520000530704780B483B000AF78600B46FB70FB78C1
S31520000540002B0AD07B689B899BB26FEA43436FEAF4
S3152000055053439AB27B689A8107E07B689B899BB25A
S31520000560C3F30E039AB27B689A8100BF0C37BD464F
S315200005705DF8047B704780B483B000AF78600B468B
S31520000580FB70FB78002B08D07B689B8A9BB243F4D8
S3152000059000639AB27B689A8207E07B689B8A9BB24B
S315200005A023F400639AB27B689A8200BF0C37BD465B
S315200005B05DF8047B704780B483B000AF78600B464B
S315200005C07B807B88C3F308039AB27B689A8000BF3E
S315200005D00C37BD465DF8047B704780B483B000AF0E
S315200005E078607B689B889BB2C3F308039BB218464E
S315200005F00C37BD465DF8047B704780B483B000AFEE
S3152000060078600B46FB707B681B8A9BB223F00F0336
S315200006109AB27B681A827B681B8A9AB2FB789BB255
S3152000062013439AB27B681A8200BF0C37BD465DF829
S31520000630047B704780B483B000AF78600B46FB70B4
S31520000640FB78002B08D07B689B899BB243F0020382
S315200006509AB27B689A8107E07B689B899BB223F0DC
S3152000066002039AB27B689A8100BF0C37BD465DF8BB
S31520000670047B704780B483B000AF78600B467B80E4
S315200006807B689B899BB223F400639AB27B689A812C
S315200006907B689B899AB27B8813439AB27B689A813E
S315200006A000BF0C37BD465DF8047B704780B483B02D
S315200006B000AF78600B467B807B681B8A9BB223F059
S315200006C020039AB27B681A827B681B8A9AB27B883F
S315200006D013439AB27B681A8200BF0C37BD465DF879
S315200006E0047B704780B483B000AF78600B46FB7004
S315200006F0FB78002B08D07B681B8A9BB243F480438F
S315200007009AB27B681A8207E07B681B8A9BB223F425
S3152000071080439AB27B681A8200BF0C37BD465DF8CB
S31520000720047B704780B483B000AF78607B689B8978
S315200007309BB243F001039AB27B689A8100BF0C37C3
S31520000740BD465DF8047B704780B483B000AF786007
S315200007500B46FB70FB78002B08D07B689B8A9BB2EC
S3152000076043F008039AB27B689A8207E07B689B8AEB
S315200007709BB223F008039AB27B689A8200BF0C379B
S31520000780BD465DF8047B704780B483B000AF7860C7
S315200007900B46FB707B681B8B9BB2DBB29AB27B68E5
S315200007A01A837B681B8B9AB2FB789BB21B029BB287
S315200007B013439AB27B681A8300BF0C37BD465DF897
S315200007C0047B704780B483B000AF78600B46FB7023
S315200007D0FB78002B08D07B689B8A9BB243F02003D2
S315200007E09AB27B689A8207E07B689B8A9BB223F049
S315200007F020039AB27B689A8200BF0C37BD465DF80B
S31520000800047B704780B483B000AF78600B46FB70E2
S31520000810FB78002B08D07B689B8A9BB243F01003A1
S315200008209AB27B689A8207E07B689B8A9BB223F008
S3152000083010039AB27B689A8200BF0C37BD465DF8DA
S31520000840047B704780B483B000AF78600B467B8012
S315200008507B689B8A9BB223F004039AB27B689A82B8
S315200008607B689B8A9AB27B8813439AB27B689A826A
S3152000087000BF0C37BD465DF8047B704780B483B05B
S3152000088000AF78600B46FB70FB78002B08D07B68A6
S315200008909B8A9BB243F002039AB27B689A8207E056
S315200008A07B689B8A9BB223F002039AB27B689A826A
S315200008B000BF0C37BD465DF8047B704780B483B01B
S315200008C000AF78600B467B8013467B707B78002BCD
S315200008D008D07B689B8A9AB27B8813439AB27B683E
S315200008E09A8209E07B689B8A9AB27B88DB439BB21B
S315200008F013409AB27B689A8200BF0C37BD465DF8DA
S31520000900047B704780B487B000AF78600B467B804D
S3152000091013467B7000233B610023FB600023BB60F2
S3152000092000237B617B687B617B88DBB25B09DBB262
S315200009303B617B8803F01F03FB600122FB6802FA00
S3152000094003F3BB603B69012B03D17B690C337B61CD
S3152000095009E03B69022B03D17B6910337B6102E0FE
S315200009607B6914337B617B78002B06D07B69196801
S315200009707B69BA680A431A6006E07B691968BB6816
S31520000980DA437B690A401A6000BF1C37BD465DF812
S31520000990047B704780B485B000AF78600B467B80BF
S315200009A00023FB737B681B889AB27B8813409BB21B
S315200009B0002B02D00123FB7301E00023FB73FB7B9A
S315200009C018461437BD465DF8047B704780B483B063
S315200009D000AF78600B467B807B88DB439AB27B68CE
S315200009E01A8000BF0C37BD465DF8047B704780B483
S315200009F087B000AF78600B467B800023FB60002326
S31520000A007B610023BB600023FB747B88DBB25B0920
S31520000A10DBB2BB607B8803F01F037B6101227B690D
S31520000A2002FA03F37B61BB68012B07D17B689B89A4
S31520000A309BB21A467B6913407B6111E0BB68022B8F
S31520000A4007D17B681B8A9BB21A467B6913407B6160
S31520000A5006E07B689B8A9BB21A467B6913407B61C2
S31520000A607B881B0A9BB2FB600122FB6802FA03F318
S31520000A70FB607B681B889BB21A46FB681340FB60B1
S31520000A807B69002B05D0FB68002B02D00123FB7469
S31520000A9001E00023FB74FB7C18461C37BD465DF83D
S31520000AA0047B704780B485B000AF78600B467B80AE
S31520000AB00023FB810023BB817B881B0AFB81FB89EA
S31520000AC0012202FA03F3BB81BB89DB439AB27B681E
S31520000AD01A8000BF1437BD465DF8047B704700BFFF
S31520000AE080B582B000AF78607B68604A934208D1B7
S31520000AF00121012006F04CF90021012006F048F9D9
S31520000B00AFE07B68B3F1804F08D10121012006F0C8
S31520000B101FF90021012006F01BF9A2E07B68544A48
S31520000B20934208D10121022006F012F90021022069
S31520000B3006F00EF995E07B684E4A934208D10121D2
S31520000B40042006F005F90021042006F001F988E0CA
S31520000B507B68494A934208D10121082006F0F8F81B
S31520000B600021082006F0F4F87BE07B68434A934294
S31520000B7008D10121102006F0EBF80021102006F004
S31520000B80E7F86EE07B683E4A934208D10121202097
S31520000B9006F0DEF80021202006F0DAF861E07B6816
S31520000BA0384A934208D10121022006F0F1F80021AB
S31520000BB0022006F0EDF854E07B68334A93420AD1CE
S31520000BC001214FF4803006F0E3F800214FF4803005
S31520000BD006F0DEF845E07B682C4A93420AD10121D3
S31520000BE04FF4003006F0D4F800214FF4003006F020
S31520000BF0CFF836E07B68264A93420AD101214FF48A
S31520000C00802006F0C5F800214FF4802006F0C0F8B9
S31520000C1027E07B681F4A934208D10121402006F035
S31520000C2097F80021402006F093F81AE07B681A4ACC
S31520000C30934208D10121802006F08AF800218020E5
S31520000C4006F086F80DE07B68144A934209D101210B
S31520000C504FF4807006F07CF800214FF4807006F087
S31520000C6077F800BF0837BD4680BD00BF00000140B1
S31520000C700004004000080040000C00400010004026
S31520000C80001400400004014000400140004401409F
S31520000C900048014000180040001C00400020004091
S31520000CA080B485B000AF786039600023FB817B6813
S31520000CB01B88FB817B68294A934213D07B68284A8C
S31520000CC093420FD07B68B3F1804F0BD07B68254AC7
S31520000CD0934207D07B68244A934203D07B68234AF9
S31520000CE0934208D1FB8923F07003FB813B685A8825
S31520000CF0FB891343FB817B681D4A93420CD07B689A
S31520000D001C4A934208D0FB8923F44073FB813B683D
S31520000D101A89FB891343FB817B68FA891A803B6811
S31520000D205A687B68DA623B681A887B681A857B6812
S31520000D300A4A934203D07B68094A934204D13B680E
S31520000D409B7A9AB27B681A867B6801229A8200BFB8
S31520000D501437BD465DF8047B704700BF0000014094
S31520000D60000401400004004000080040000C004040
S31520000D70001000400014004080B483B000AF7860BB
S31520000D807B684FF0FF325A607B6800221A807B68AE
S31520000D9000221A817B6800225A807B6800229A7280
S31520000DA000BF0C37BD465DF8047B704780B483B026
S31520000DB000AF78600B467B8013463B807B687A8841
S31520000DC01A857B683A889A8200BF0C37BD465DF843
S31520000DD0047B704780B485B000AF78600B467B807B
S31520000DE00023FB817B681B88FB81FB8923F0700332
S31520000DF0FB81FA897B881343FB817B68FA891A80F9
S31520000E0000BF1437BD465DF8047B704780B483B0BD
S31520000E1000AF786039607B683A685A6200BF0C3749
S31520000E20BD465DF8047B704780B483B000AF786020
S31520000E3039607B683A68DA6200BF0C37BD465DF8D8
S31520000E40047B704780B483B000AF78607B685B6AB0
S31520000E5018460C37BD465DF8047B704780B483B0D6
S31520000E6000AF78607B681B8D9BB218460C37BD4659
S31520000E705DF8047B704780B483B000AF78600B4682
S31520000E80FB70FB78002B08D07B681B889BB243F055
S31520000E9002039AB27B681A8007E07B681B889BB2A4
S31520000EA023F002039AB27B681A8000BF0C37BD4636
S31520000EB05DF8047B704780B483B000AF78600B4642
S31520000EC07B807B88002B08D07B681B889BB243F0F5
S31520000ED004039AB27B681A8007E07B681B889BB262
S31520000EE023F004039AB27B681A8000BF0C37BD46F4
S31520000EF05DF8047B704780B483B000AF78600B4602
S31520000F00FB70FB78002B08D07B681B889BB243F0D4
S31520000F1080039AB27B681A8007E07B681B889BB2A5
S31520000F2023F080039AB27B681A8000BF0C37BD4637
S31520000F305DF8047B704780B483B000AF78600B46C1
S31520000F407B807B681B889BB223F008039AB27B6860
S31520000F501A807B681B889AB27B8813439AB27B6877
S31520000F601A8000BF0C37BD465DF8047B704780B4FD
S31520000F7083B000AF78600B467B807B681B889BB272
S31520000F8023F440739AB27B681A807B681B889AB2D6
S31520000F907B8813439AB27B681A8000BF0C37BD4604
S31520000FA05DF8047B704780B483B000AF78600B4651
S31520000FB0FB70FB78002B08D07B681B889BB243F024
S31520000FC001039AB27B681A8007E07B681B889BB274
S31520000FD023F001039AB27B681A8000BF0C37BD4606
S31520000FE05DF8047B704780B485B000AF78603960C7
S31520000FF000237B810023FB810023BB817B681B8C24
S315200010009BB223F001039AB27B681A847B681B8CFF
S31520001010FB817B689B88BB817B681B8B7B817B8963
S3152000102023F070037B817B8923F003037B813B685C
S315200010301A887B8913437B81FB8923F00203FB817A
S315200010403B689A89FB891343FB813B685A88FB8955
S315200010501343FB817B681F4A934203D07B681E4A59
S31520001060934223D1FB8923F00803FB813B68DA896D
S31520001070FB891343FB81FB8923F00403FB813B6837
S315200010809A88FB891343FB81BB8923F48073BB8138
S31520001090BB8923F40073BB813B681A8ABB8913433F
S315200010A0BB813B685A8ABB891343BB817B68BA895B
S315200010B09A807B687A891A833B689A687B685A6328
S315200010C07B68FA891A8400BF1437BD465DF8047B15
S315200010D0704700BF000001400004014080B485B085
S315200010E000AF7860396000237B810023FB810023D9
S315200010F0BB817B681B8C9BB223F010039AB27B6862
S315200011001A847B681B8CFB817B689B88BB817B68F0
S315200011101B8B7B817B8923F4E0437B817B8923F4B2
S3152000112040737B813B681B881B029AB27B891343E1
S315200011307B81FB8923F02003FB813B689B891B0174
S315200011409AB2FB891343FB813B685B881B019AB2E9
S31520001150FB891343FB817B68224A934203D07B6839
S31520001160214A93422BD1FB8923F08003FB813B68E4
S31520001170DB891B019AB2FB891343FB81FB8923F090
S315200011804003FB813B689B881B019AB2FB89134372
S31520001190FB81BB8923F48063BB81BB8923F4006375
S315200011A0BB813B681B8A9B009AB2BB891343BB81D8
S315200011B03B685B8A9B009AB2BB891343BB817B68E1
S315200011C0BA899A807B687A891A833B689A687B6891
S315200011D09A637B68FA891A8400BF1437BD465DF886
S315200011E0047B7047000001400004014080B485B0B4
S315200011F000AF7860396000237B810023FB810023C8
S31520001200BB817B681B8C9BB223F480739AB27B686C
S315200012101A847B681B8CFB817B689B88BB817B68DF
S315200012209B8B7B817B8923F070037B817B8923F0D9
S3152000123003037B813B681A887B8913437B81FB8967
S3152000124023F40073FB813B689B891B029AB2FB89BE
S315200012501343FB813B685B881B029AB2FB891343CD
S31520001260FB817B68224A934203D07B68214A9342C2
S315200012702BD1FB8923F40063FB813B68DB891B02AE
S315200012809AB2FB891343FB81FB8923F48063FB819C
S315200012903B689B881B029AB2FB891343FB81BB895F
S315200012A023F48053BB81BB8923F40053BB813B6865
S315200012B01B8A1B019AB2BB891343BB813B685B8A9D
S315200012C01B019AB2BB891343BB817B68BA899A807A
S315200012D07B687A899A833B689A687B68DA637B683D
S315200012E0FA891A8400BF1437BD465DF8047B70471F
S315200012F0000001400004014080B485B000AF786052
S3152000130039600023BB8100237B810023FB817B681E
S315200013101B8C9BB223F480539AB27B681A847B6819
S315200013201B8C7B817B689B88FB817B689B8BBB812D
S31520001330BB8923F4E043BB81BB8923F44073BB8183
S315200013403B681B881B029AB2BB891343BB817B89EE
S3152000135023F400537B813B689B891B039AB27B89CC
S3152000136013437B813B685B881B039AB27B891343BB
S315200013707B817B68124A934203D07B68114A934251
S315200013800AD1FB8923F48043FB813B681B8A9B019E
S315200013909AB2FB891343FB817B68FA899A807B6822
S315200013A0BA899A833B689A687B681A647B687A89CB
S315200013B01A8400BF1437BD465DF8047B704700BF12
S315200013C0000001400004014080B483B000AF786083
S315200013D07B6800221A807B6800225A807B68002264
S315200013E09A807B6800229A607B6800229A817B68BB
S315200013F00022DA817B6800221A827B6800225A82C8
S3152000140000BF0C37BD465DF8047B704780B485B0BD
S3152000141000AF78600B467B8013463B800023FB6041
S3152000142000237B817B68FB60FB681833FB607B882D
S31520001430012202FA03F37B817B681B8C9AB27B899B
S31520001440DB439BB213409AB27B681A847B88002BBD
S3152000145002D07B88082B14D17B885B089BB21A4666
S31520001460FB681344FB60FB681968FA684FF68F73B4
S315200014700B401360FB6819683A88FB680A431A60B8
S3152000148019E07B88043B9BB25B089BB21A46FB683B
S315200014901344FB60FB681968FA6848F6FF730B4033
S315200014A01360FB681A683B881B029BB21946FB68CF
S315200014B00A431A6000BF00BF1437BD465DF8047B9F
S315200014C0704780B483B000AF786039607B683A6833
S315200014D05A6300BF0C37BD465DF8047B704780B465
S315200014E083B000AF786039607B683A689A6300BF42
S315200014F00C37BD465DF8047B704780B483B000AFDF
S31520001500786039607B683A68DA6300BF0C37BD467D
S315200015105DF8047B704780B483B000AF7860396093
S315200015207B683A681A6400BF0C37BD465DF8047BB9
S31520001530704780B485B000AF78600B467B8000236F
S31520001540FB817B681B8BFB81FB8923F07003FB816E
S31520001550FA897B881343FB817B68FA891A8300BF4B
S315200015601437BD465DF8047B704780B485B000AF64
S3152000157078600B467B800023FB817B681B8BFB817D
S31520001580FB8923F4E043FB817B881B029AB2FB890B
S315200015901343FB817B68FA891A8300BF1437BD4643
S315200015A05DF8047B704780B485B000AF78600B4649
S315200015B07B800023FB817B689B8BFB81FB8923F04F
S315200015C07003FB81FA897B881343FB817B68FA8948
S315200015D09A8300BF1437BD465DF8047B704780B4FC
S315200015E085B000AF78600B467B800023FB817B684B
S315200015F09B8BFB81FB8923F4E043FB817B881B02C9
S315200016009AB2FB891343FB817B68FA899A8300BFD0
S315200016101437BD465DF8047B704780B485B000AFB3
S3152000162078600B467B800023FB817B681B8BFB81CC
S31520001630FB8923F00803FB81FA897B881343FB810E
S315200016407B68FA891A8300BF1437BD465DF8047B90
S31520001650704780B485B000AF78600B467B8000234E
S31520001660FB817B681B8BFB81FB8923F40063FB8159
S315200016707B881B029AB2FB891343FB817B68FA891C
S315200016801A8300BF1437BD465DF8047B704780B4CB
S3152000169085B000AF78600B467B800023FB817B689A
S315200016A09B8BFB81FB8923F00803FB81FA897B88CE
S315200016B01343FB817B68FA899A8300BF1437BD46A2
S315200016C05DF8047B704780B485B000AF78600B4628
S315200016D07B800023FB817B689B8BFB81FB8923F42A
S315200016E00063FB817B881B029AB2FB891343FB8133
S315200016F07B68FA899A8300BF1437BD465DF8047B60
S31520001700704780B485B000AF78600B467B8000239D
S31520001710FB817B681B8BFB81FB8923F00403FB8108
S31520001720FA897B881343FB817B68FA891A8300BF79
S315200017301437BD465DF8047B704780B485B000AF92
S3152000174078600B467B800023FB817B681B8BFB81AB
S31520001750FB8923F48063FB817B881B029AB2FB8979
S315200017601343FB817B68FA891A8300BF1437BD4671
S315200017705DF8047B704780B485B000AF78600B4677
S315200017807B800023FB817B689B8BFB81FB8923F07D
S315200017900403FB81FA897B881343FB817B68FA89E2
S315200017A09A8300BF1437BD465DF8047B704780B42A
S315200017B085B000AF78600B467B800023FB817B6879
S315200017C09B8BFB81FB8923F48063FB817B881B0237
S315200017D09AB2FB891343FB817B68FA899A8300BFFF
S315200017E01437BD465DF8047B704780B485B000AFE2
S315200017F078600B467B800023FB817B681B8BFB81FB
S31520001800FB8923F08003FB81FA897B881343FB81C4
S315200018107B68FA891A8300BF1437BD465DF8047BBE
S31520001820704780B485B000AF78600B467B8000237C
S31520001830FB817B681B8BFB81FB89C3F30E03FB813A
S315200018407B881B029AB2FB891343FB817B68FA894A
S315200018501A8300BF1437BD465DF8047B704780B4F9
S3152000186085B000AF78600B467B800023FB817B68C8
S315200018709B8BFB81FB8923F08003FB81FA897B8884
S315200018801343FB817B68FA899A8300BF1437BD46D0
S315200018905DF8047B704780B485B000AF78600B4656
S315200018A07B800023FB817B689B8BFB81FB89C3F3B9
S315200018B00E03FB817B881B029AB2FB891343FB81B3
S315200018C07B68FA899A8300BF1437BD465DF8047B8E
S315200018D0704780B485B000AF78600B467B800023CC
S315200018E0FB817B681B8CFB81FB8923F00203FB8138
S315200018F0FA897B881343FB817B68FA891A8400BFA7
S315200019001437BD465DF8047B704780B485B000AFC0
S3152000191078600B467B800023FB817B681B8CFB81D8
S31520001920FB8923F00803FB81FA897B881343FB811B
S315200019307B68FA891A8400BF1437BD465DF8047B9C
S31520001940704780B485B000AF78600B467B8000235B
S31520001950FB817B681B8CFB81FB8923F02003FB81A9
S315200019607B881B019AB2FB891343FB817B68FA892A
S315200019701A8400BF1437BD465DF8047B704780B4D7
S3152000198085B000AF78600B467B800023FB817B68A7
S315200019901B8CFB81FB8923F08003FB817B881B0149
S315200019A09AB2FB891343FB817B68FA891A8400BFAC
S315200019B01437BD465DF8047B704780B485B000AF10
S315200019C078600B467B800023FB817B681B8CFB8128
S315200019D0FB8923F40073FB817B881B029AB2FB8967
S315200019E01343FB817B68FA891A8400BF1437BD46EE
S315200019F05DF8047B704780B485B000AF78600B46F5
S31520001A007B800023FB817B681B8CFB81FB8923F475
S31520001A100063FB817B881B029AB2FB891343FB81FF
S31520001A207B68FA891A8400BF1437BD465DF8047BAB
S31520001A30704780B485B000AF78600B467B8000236A
S31520001A40FB817B681B8CFB81FB8923F40053FB8184
S31520001A507B881B039AB2FB891343FB817B68FA8937
S31520001A601A8400BF1437BD465DF8047B704780B4E6
S31520001A7085B000AF78600B467B8013463B80002301
S31520001A80FB817B88012202FA03F3FB817B681B8C96
S31520001A909AB2FB89DB439BB213409AB27B681A84C5
S31520001AA07B681B8C9AB239887B8801FA03F39BB238
S31520001AB013439AB27B681A8400BF1437BD465DF87B
S31520001AC0047B704780B485B000AF78600B467B807E
S31520001AD013463B800023FB817B88042202FA03F312
S31520001AE0FB817B681B8C9AB2FB89DB439BB213403C
S31520001AF09AB27B681A847B681B8C9AB239887B8859
S31520001B0001FA03F39BB213439AB27B681A8400BF8F
S31520001B101437BD465DF8047B704780B582B000AFB0
S31520001B20786039603B681B88002B0FD13B68598849
S31520001B303B689A883B681B89786800F0B7FC3B684D
S31520001B40DB881946786800F0E1F836E03B681B88A8
S31520001B50042B0FD13B6859883B689A883B681B89C0
S31520001B60786800F0E6FC3B68DB881946786800F068
S31520001B70E9F822E03B681B88082B0FD13B6859887F
S31520001B803B689A883B681B89786800F01FFD3B6894
S31520001B90DB881946786800F0F3F80EE03B68598830
S31520001BA03B689A883B681B89786800F057FD3B683C
S31520001BB0DB881946786800F0FFF800BF0837BD4675
S31520001BC080BD80B483B000AF78607B6800221A8025
S31520001BD07B6800225A807B6801229A807B680022DB
S31520001BE0DA807B6800221A8100BF0C37BD465DF87B
S31520001BF0047B704780B584B000AF786039600023DD
S31520001C00FB810123BB813B685B88002B02D1022329
S31520001C10FB8101E00023FB813B689B88012B02D1DD
S31520001C200223BB8101E00123BB813B681B88002B7B
S31520001C301CD13B6859883B689A883B681B89786821
S31520001C4000F034FC3B68DB881946786800F05EF8C3
S31520001C503B681B89BA89F989786800F06AFC3B6879
S31520001C60DB881946786800F06DF81BE03B685988D8
S31520001C703B689A883B681B89786800F05AFC3B6869
S31520001C80DB881946786800F05DF83B681B89BA89BD
S31520001C90F989786800F00AFC3B68DB881946786881
S31520001CA000F034F800BF1037BD4680BD80B483B045
S31520001CB000AF78607B685B6B18460C37BD465DF8D5
S31520001CC0047B704780B483B000AF78607B689B6BE1
S31520001CD018460C37BD465DF8047B704780B483B048
S31520001CE000AF78607B68DB6B18460C37BD465DF825
S31520001CF0047B704780B483B000AF78607B681B6C30
S31520001D0018460C37BD465DF8047B704780B483B017
S31520001D1000AF78600B467B807B681B8B9BB223F0E1
S31520001D200C039AB27B681A837B681B8B9AB27B88DA
S31520001D3013439AB27B681A8300BF0C37BD465DF801
S31520001D40047B704780B483B000AF78600B467B80FD
S31520001D507B681B8B9BB223F440639AB27B681A8301
S31520001D607B681B8B9AB27B881B029BB213439AB269
S31520001D707B681A8300BF0C37BD465DF8047B70472D
S31520001D8080B483B000AF78600B467B807B689B8BEA
S31520001D909BB223F00C039AB27B689A837B689B8B59
S31520001DA09AB27B8813439AB27B689A8300BF0C371A
S31520001DB0BD465DF8047B704780B483B000AF786081
S31520001DC00B467B807B689B8B9BB223F440639AB245
S31520001DD07B689A837B689B8B9AB27B881B029BB21B
S31520001DE013439AB27B689A8300BF0C37BD465DF8D1
S31520001DF0047B704780B483B000AF786039603B685D
S31520001E001A883B685B8813439AB23B689B881343C6
S31520001E109AB23B68DB8813439AB23B681B8913430B
S31520001E209AB23B685B8913439AB23B689B891343FA
S31520001E309AB27B68A3F8442000BF0C37BD465DF8F4
S31520001E40047B704780B483B000AF78607B68002243
S31520001E501A807B6800225A807B6800229A807B68E1
S31520001E600022DA807B6800221A817B6800225A8150
S31520001E707B6800229A8100BF0C37BD465DF8047B43
S31520001E80704780B483B000AF78600B46FB70FB7858
S31520001E90002B0CD07B68B3F844309BB26FEA4343E7
S31520001EA06FEA53439AB27B68A3F8442009E07B6823
S31520001EB0B3F844309BB2C3F30E039AB27B68A3F8FF
S31520001EC0442000BF0C37BD465DF8047B704780B4C4
S31520001ED083B000AF78600B46FB70FB78002B08D0F0
S31520001EE07B689B889BB243F004039AB27B689A80F6
S31520001EF007E07B689B889BB223F004039AB27B6839
S31520001F009A8000BF0C37BD465DF8047B704780B4CD
S31520001F1083B000AF78600B46FB70FB78002B08D0AF
S31520001F207B689B889BB243F001039AB27B689A80B8
S31520001F3007E07B689B889BB223F001039AB27B68FB
S31520001F409A8000BF0C37BD465DF8047B704780B48D
S31520001F5083B000AF78600B467B8013467B707B781E
S31520001F60002B08D07B689B899AB27B8813439AB250
S31520001F707B689A8109E07B689B899AB27B88DB43E0
S31520001F809BB213409AB27B689A8100BF0C37BD463C
S31520001F905DF8047B704780B483B000AF78600B4651
S31520001FA07B807B687A889A8200BF0C37BD465DF8B5
S31520001FB0047B704780B485B000AF78600B467B8089
S31520001FC00023FB737B681B8A9AB27B8813409BB2E3
S31520001FD0002B02D00123FB7301E00023FB73FB7B64
S31520001FE018461437BD465DF8047B704780B483B02D
S31520001FF000AF78600B467B807B88DB439AB27B6898
S315200020001A8200BF0C37BD465DF8047B704780B44A
S3152000201085B000AF78600B467B800023FB730023DE
S31520002020BB8100237B817B681B8A9AB27B88134005
S31520002030BB817B689B899AB27B8813407B81BB8955
S31520002040002B05D07B89002B02D00123FB7301E0F6
S315200020500023FB73FB7B18461437BD465DF8047BD3
S31520002060704780B483B000AF78600B467B807B8856
S31520002070DB439AB27B681A8200BF0C37BD465DF8F7
S31520002080047B704780B483B000AF78600B467B80BA
S3152000209013463B807A883B8813439AB27B68A3F821
S315200020A0482000BF0C37BD465DF8047B704780B4DE
S315200020B083B000AF78600B467B8013467B707B78BD
S315200020C0002B08D07B689B899AB27B8813439AB2EF
S315200020D07B689A8109E07B689B899AB27B88DB437F
S315200020E09BB213409AB27B689A8100BF0C37BD46DB
S315200020F05DF8047B704780B483B000AF78600B46F0
S31520002100FB70FB78002B08D07B689B889BB243F042
S3152000211008039AB27B689A8007E07B689B889BB20B
S3152000212023F008039AB27B689A8000BF0C37BD461D
S315200021305DF8047B704780B483B000AF78607B681D
S315200021401B899BB223F007039AB27B681A8100BFD2
S315200021500C37BD465DF8047B704780B582B000AF72
S3152000216078600B467B807B881946786800F088F873
S315200021707B681B899BB243F007039AB27B681A815E
S3152000218000BF0837BD4680BD80B584B000AFF8607B
S31520002190084611461A4603467B810B463B81134669
S315200021A0FB807B89602B06D1FB8839890122F86860
S315200021B000F0BFF905E0FB8839890122F86800F0B4
S315200021C075F97B891946F86800F05AF8FB681B896F
S315200021D09BB243F007039AB2FB681A8100BF1037FF
S315200021E0BD4680BD80B586B000AFF8600846114672
S315200021F01A4603467B810B463B811346FB80002310
S31520002200FB82FB883A897989F86800F0A9F8FB688F
S315200022101B89FB82FB8A23F00703FB82FB8A43F0A0
S315200022200703FB82FB8A23F07003FB82FB8A43F0C1
S315200022307003FB82FB68FA8A1A8100BF1837BD46F5
S3152000224080BD80B584B000AFF860084611461A46B6
S3152000225003467B810B463B811346FB80FB883A89EC
S315200022607989F86800F07CF8FB681B899BB243F4F7
S3152000227080439AB2FB681A8100BF1037BD4680BDE5
S3152000228080B485B000AF78600B467B800023FB814D
S315200022907B681B89FB81FB8923F07003FB81FA890C
S315200022A07B881343FB817B68FA891A8100BF143728
S315200022B0BD465DF8047B704780B483B000AF78607C
S315200022C00B467B807B689B889BB223F070039AB277
S315200022D07B689A807B689B889AB27B8813439AB2E4
S315200022E07B689A8000BF0C37BD465DF8047B70473B
S315200022F080B483B000AF78600B467B807B681B89F7
S315200023009BB223F007039AB27B681A817B681B89EC
S315200023109AB27B8813439AB27B681A8100BF0C3726
S31520002320BD465DF8047B704780B483B000AF78600B
S315200023300B467B807B681B899BB223F080039AB275
S315200023407B681A817B681B899AB27B8813439AB271
S315200023507B681A8100BF0C37BD465DF8047B704749
S3152000236080B487B000AFF860084611461A46034687
S315200023707B810B463B811346FB800023FB82FB6857
S315200023801B89FB82FB8ADBB2FB82FB881B029AB28B
S315200023903B8913439AB27B8913439AB2FB8A134330
S315200023A0FB82FB68FA8A1A8100BF1C37BD465DF89E
S315200023B0047B704780B487B000AFF86008461146AA
S315200023C01A4603467B810B463B811346FB8000233E
S315200023D0FB820023BB8200237B82FB681B89FB8256
S315200023E0FB681B8BBB82FB681B8C7B82FB8A23F0E2
S315200023F00703FB82FA8A7B891343FB82BB8A23F479
S31520002400407323F00303BB82BB8A43F4807343F0FB
S315200024100103BB827B8A23F022037B82FB881B017C
S315200024209AB23B8913439AB27B8A13437B82FB6819
S31520002430FA8A1A81FB68BA8A1A83FB687A8A1A840E
S3152000244000BF1C37BD465DF8047B704780B483B05F
S3152000245000AF78600B46FB70FB78002B08D07B68BA
S315200024609B889BB243F080039AB27B689A8007E0F0
S315200024707B689B889BB223F080039AB27B689A8004
S3152000248000BF0C37BD465DF8047B704780B483B02F
S3152000249000AF78600B467B807B687A88A3F8502053
S315200024A000BF0C37BD465DF8047B704780B487B00B
S315200024B000AFF860084611461A4603467B810B4654
S315200024C03B811346FB800023FB820023BB82FB68F3
S315200024D01B8C9BB223F001039AB2FB681A84FB681B
S315200024E01B8BFB82FB681B8CBB82FB8A23F0F303CE
S315200024F0FB82FB881B019AB23B8913439AB2FB8A63
S315200025001343FB82BB8A23F00A03BB827A89BB8AE8
S3152000251013439BB243F00103BB82FB68FA8A1A83FA
S31520002520FB68BA8A1A8400BF1C37BD465DF8047B57
S31520002530704780B487B000AFF860084611461A4647
S3152000254003467B810B463B811346FB800023FB829F
S315200025500023BB8200237B82FB681B8C9BB223F06B
S3152000256010039AB2FB681A84FB681B8BFB82FB68FC
S315200025701B8CBB827B891B017B82FB8A23F44073E5
S315200025801B051B0DFB82FB881B039AB2FB8A134398
S31520002590FB823B891B029AB2FB8A1343FB82BB8ACE
S315200025A023F0A003BB827A8ABB8A13439BB243F0F3
S315200025B01003BB82FB68FA8A1A83FB68BA8A1A84DC
S315200025C000BF1C37BD465DF8047B704780B487B0DA
S315200025D000AFF860084611461A4603467B810B4633
S315200025E03B811346FB800023FB820023BB82002312
S315200025F07B82FB681B8C9BB223F480739AB2FB68A8
S315200026001A84FB689B8BFB82FB681B8CBB827B89B5
S315200026101B027B82FB8A23F0F303FB82FB881B01D0
S315200026209AB23B8913439AB2FB8A1343FB82BB8A35
S3152000263023F42063BB827A8ABB8A13439BB243F47A
S315200026408073BB82FB68FA8A9A83FB68BA8A1A84EB
S3152000265000BF1C37BD465DF8047B704780B487B049
S3152000266000AFF860084611461A4603467B810B46A2
S315200026703B811346FB800023FB820023BB82002381
S315200026807B82FB681B8C9BB223F480539AB2FB6837
S315200026901A84FB689B8BFB82FB681B8CBB827B8925
S315200026A01B037B82FB8A23F440731B051B0DFB82D5
S315200026B03B891B029AB2FB8A1343FB82FB881B03CE
S315200026C09AB2FB8A1343FB82BB8A23F400535B0432
S315200026D05B0CBB827A8ABB8A13439BB243F480533A
S315200026E0BB82FB68FA8A9A83FB68BA8A1A8400BF7F
S315200026F01C37BD465DF8047B704700BF80B500AF30
S3152000270001214FF0005004F023FB00214FF0005030
S3152000271004F01EFB00BF80BD80B485B000AF78609A
S3152000272039600023FB600023BB60144B1B68FB60F1
S3152000273040F6FE727B6802FA03F3DB43FA68134025
S31520002740FB603B681A683B685B681A433B689B687A
S315200027501A433B68DB681343BB60BA687B6802FA9E
S3152000276003F3FA681343FB60044AFB68136000BF57
S315200027701437BD465DF8047B704700BF00740040E7
S3152000278080B483B000AF78607B6800221A607B68D3
S3152000279000225A607B6800229A607B680022DA60F9
S315200027A000BF0C37BD465DF8047B704780B483B00C
S315200027B000AF78600B46FB70FB78002B09D00D4BE1
S315200027C01A6801217B6801FA03F30A4913430B6057
S315200027D009E0084B1A6801217B6801FA03F3DB4301
S315200027E0044913400B6000BF0C37BD465DF8047BDF
S315200027F0704700BF0074004080B483B000AF78609B
S315200028000B46FB70FB78002B0AD00E4B5A687B6870
S315200028101B09012101FA03F30A4913434B600AE01D
S31520002820084B5A687B681B09012101FA03F3DB4335
S31520002830044913404B6000BF0C37BD465DF8047B4E
S31520002840704700BF0074004080B483B000AF0346D9
S31520002850FB71FB79002B06D0094B5B68084A43F0D5
S315200028600303536005E0064B5B68054A23F0030328
S31520002870536000BF0C37BD465DF8047B704700BF30
S315200028800074004080B485B000AFF860B96013468C
S31520002890FB71FB79002B09D00C4B1A68B968FB68D1
S315200028A001FA03F3094913430B6009E0074B1A6841
S315200028B0B968FB6801FA03F3DB43044913400B6054
S315200028C000BF1437BD465DF8047B70470074004096
S315200028D080B485B000AF78600B467B800023FB6018
S315200028E0084BFB60FA687B6813440833FB60FB687F
S315200028F01A467B88136000BF1437BD465DF8047BFB
S31520002900704700BF0074004080B485B000AF786087
S315200029100B467B800023FB60084BFB60FA687B68D4
S3152000292013441433FB60FB681A467B88136000BF90
S315200029301437BD465DF8047B704700BF0074004025
S3152000294080B485B000AF78600B467B8013463B8011
S315200029500023FB600023BB607B68082B05D17B88A6
S315200029601A023B881343FB6004E07B881A043B88E9
S315200029701343FB60074BBB607A68BB681344203364
S31520002980BB60BB68FA681A6000BF1437BD465DF8A5
S31520002990047B70470074004080B485B000AF786037
S315200029A00023FB60084BFB607B689A08FB68134496
S315200029B02C33FB60FB681B689BB218461437BD4658
S315200029C05DF8047B704700BF0074004080B483B07C
S315200029D000AF78600B46FB70FB78002B0AD00E4BBD
S315200029E01A684FF480517B6801FA03F30A491343AE
S315200029F00B600AE0084B1A684FF480517B6801FA95
S31520002A0003F3DB43044913400B6000BF0C37BD467C
S31520002A105DF8047B704700BF0074004080B485B029
S31520002A2000AFF860B9601346FB71FB79002B09D023
S31520002A300C4B1A68B968FB6801FA03F3094913437A
S31520002A400B6009E0074B1A68B968FB6801FA03F3C3
S31520002A50DB43044913400B6000BF1437BD465DF8C5
S31520002A60047B70470074004080B485B000AF786066
S31520002A7039600023FB730A4B5A6B39687B6801FA6D
S31520002A8003F31340002B02D00123FB7301E0002344
S31520002A90FB73FB7B18461437BD465DF8047B7047F5
S31520002AA00074004080B483B000AF78603960064976
S31520002AB03A687B6802FA03F34B6300BF0C37BD46C6
S31520002AC05DF8047B704700BF0074004080B485B079
S31520002AD000AF786039600023FB730023BB60104B86
S31520002AE01A6839687B6801FA03F31340BB600C4B04
S31520002AF05A6B39687B6801FA03F31340002B05D023
S31520002B00BB68002B02D00123FB7301E00023FB737B
S31520002B10FB7B18461437BD465DF8047B704700BF23
S31520002B200074004080B483B000AF786039600649F5
S31520002B303A687B6802FA03F34B6300BF0C37BD4645
S31520002B405DF8047B704700BF0074004080B582B0FA
S31520002B5000AF78607B684B4A934208D1012101205F
S31520002B6004F096F80021012004F092F886E07B68B4
S31520002B70454A934208D10121022004F089F8002118
S31520002B80022004F085F879E07B68404A934208D118
S31520002B900121042004F07CF80021042004F078F8B8
S31520002BA06CE07B683A4A934208D10121082004F060
S31520002BB06FF80021082004F06BF85FE07B68354A47
S31520002BC0934208D10121102004F062F80021102040
S31520002BD004F05EF852E07B682F4A934208D1012127
S31520002BE0202004F055F80021202004F051F845E07B
S31520002BF07B682A4A934208D10121402004F048F8F4
S31520002C000021402004F044F838E07B68244A9342AF
S31520002C1008D10121802004F03BF80021802004F017
S31520002C2037F82BE07B681F4A93420AD101214FF4E3
S31520002C30807004F02DF800214FF4807004F028F8FD
S31520002C401CE07B68184A93420AD101214FF4007098
S31520002C5004F01EF800214FF4007004F019F80DE07E
S31520002C607B68124A934209D101214FF4806004F017
S31520002C700FF800214FF4806004F00AF800BF0837EF
S31520002C80BD4680BD0000024000040240000802400C
S31520002C90000C0240001002400014024000180240BE
S31520002CA0001C02400020024000240240002802406E
S31520002CB080B487B000AF7860396000237B61002341
S31520002CC03B610023FB6000237B6176E001227B6968
S31520002CD002FA03F33B613B681B683A691340FB60C9
S31520002CE0FA683B699A4265D17B681A687B695B0002
S31520002CF0032101FA03F3DB431A407B681A607B68E1
S31520002D001A683B681B7919467B695B0001FA03F355
S31520002D101A437B681A603B681B79012B03D03B68FA
S31520002D201B79022B2ED17B689A687B695B00032175
S31520002D3001FA03F3DB431A407B689A607B689A6842
S31520002D403B685B7919467B695B0001FA03F31A43FA
S31520002D507B689A607B685A687B699BB21946012317
S31520002D608B40DB431A407B685A607B685B683A6815
S31520002D70927911467A6992B201FA02F292B21A4314
S31520002D807B685A607B68DA687B699BB25B000321AB
S31520002D9001FA03F3DB431A407B68DA607B68DA6862
S31520002DA03B68DB7919467B695B0001FA03F31A431A
S31520002DB07B68DA607B6901337B617B690F2B85D960
S31520002DC000BF00BF1C37BD465DF8047B704780B44A
S31520002DD083B000AF78607B684FF6FF721A607B681D
S31520002DE000221A717B6800225A717B6800229A7130
S31520002DF07B680022DA7100BF0C37BD465DF8047B84
S31520002E00704780B485B000AF78600B467B804FF466
S31520002E108033FB607A88FB681343FB60FA687B6823
S31520002E20DA617A887B68DA61FA687B68DA617B68BE
S31520002E30DB69FB607B68DB69FB6000BF1437BD463E
S31520002E405DF8047B704780B485B000AF78600B4690
S31520002E507B800023FB737B681A697B881340002BD9
S31520002E6002D00123FB7301E00023FB73FB7B184692
S31520002E701437BD465DF8047B704780B483B000AF3D
S31520002E8078607B681B699BB218460C37BD465DF897
S31520002E90047B704780B485B000AF78600B467B809A
S31520002EA00023FB737B685A697B881340002B02D072
S31520002EB00123FB7301E00023FB73FB7B18461437C9
S31520002EC0BD465DF8047B704780B483B000AF786060
S31520002ED07B685B699BB218460C37BD465DF8047B60
S31520002EE0704780B483B000AF78600B467B807B68E8
S31520002EF07A881A8300BF0C37BD465DF8047B70477D
S31520002F0080B483B000AF78600B467B807B687A887C
S31520002F105A8300BF0C37BD465DF8047B704780B4EA
S31520002F2083B000AF78600B467B8013467B707B783E
S31520002F30002B03D07B687A881A8302E07B687A8824
S31520002F405A8300BF0C37BD465DF8047B704780B4BA
S31520002F5083B000AF78600B467B807A887B685A61A5
S31520002F6000BF0C37BD465DF8047B704780B483B044
S31520002F7000AF78600B467B807B685A697B885A4015
S31520002F807B685A6100BF0C37BD465DF8047B7047ED
S31520002F9080B485B000AF78600B467B8013467B708B
S31520002FA00023FB600023BB607A787B8803F007034D
S31520002FB09B0002FA03F3FB607B88DB089BB21A4670
S31520002FC07B68083253F822207B8803F007039B0096
S31520002FD00F2101FA03F3DB437988C90889B2084631
S31520002FE002EA03017B6800F1080243F822107B887D
S31520002FF0DB089BB21A467B68083253F82230FA68FF
S315200030001343BB607B88DB089BB21A467B68083279
S31520003010B96843F8221000BF1437BD465DF8047B1B
S31520003020704700BF80B400AF00BFBD465DF8047B8B
S31520003030704780B586B000AF4548FFF787FD454805
S3152000304001F0EAFB444801F0E7FB01214FF0007054
S3152000305003F0DEFD01214FF0806003F0D9FD012150
S31520003060022003F075FD092209213948FFF790FF58
S31520003070092208213648FFF78BFF07F1100318466F
S31520003080FFF7A5FE4FF400733B6102233B75002337
S31520003090BB750023FB7502237B7507F110031946C8
S315200030A02B48FFF705FE4FF480733B6102233B75E7
S315200030B00023BB750123FB7502237B7507F11003E3
S315200030C019462348FFF7F4FD092206212048FFF779
S315200030D05FFF092205211E48FFF75AFF40233B6167
S315200030E002233B750023BB750023FB7502237B75EA
S315200030F007F1100319461648FFF7DAFD20233B6136
S3152000310002233B750023BB750123FB7502237B75C8
S3152000311007F1100319460E48FFF7CAFD0023BB72BC
S315200031200023FB7201233B7300233B8000237B801B
S315200031300023BB800023FB8000233B8101237B737C
S315200031403B46184601F05DFC00BF1837BD4680BDE2
S3152000315000040240006400400068004080B586B04C
S3152000316000AF01214FF0005003F052FD07F110038C
S315200031701846FFF72CFE20233B6103233B750023D3
S31520003180FB7507F1100319460F48FFF791FDFFF76E
S31520003190B5FA3B461846FFF7F3FA00233B600023B7
S315200031A07B600023FB603B4619461020FFF7B4FAEC
S315200031B001211020FFF7FAFA00210820FFF7A4FBCF
S315200031C000BF1837BD4680BD0000024080B584B0E0
S315200031D000AF01214FF4804003F03AFD0721012082
S315200031E0FCF74AFF02F0D0FF3B46184603F058F89A
S315200031F080233B6000233B710C237B710123BB7131
S315200032003B46184602F0DAFF07F108031846FFF797
S31520003210DEFD0223BB6001233B730123BB73002326
S31520003220FB7301237B7307F1080319461848FFF740
S315200032303FFD0123BB6001233B730123BB730023A6
S31520003240FB7301237B7307F1080319461048FFF728
S315200032502FFD012202210E48FFF761FE01220121E6
S315200032600B48FFF75CFE8023BB6000233B730023E3
S31520003270BB730023FB7301237B7307F108031946F5
S315200032800348FFF715FD00BF1037BD4680BD00BFC0
S315200032900004024080B483B000AFEFF314833B6098
S315200032A03B6823F003037B607B6883F3148800BFAD
S315200032B0094B4FF404725A61074B5B69064A43F087
S315200032C008035361054B4FF000425A6000BF0C378C
S315200032D0BD465DF8047B704700ED00E030EF00E06E
S315200032E080B500AF0121082003F092FC01210820BF
S315200032F003F0CEFD00BF80BD80B400AF124A02E0CD
S31520003300002342F8043B114B9A42F9D300BFBD4635
S315200033105DF8047B704780B500AFFFF7EDFFFFF740
S3152000332081FEFFF786FEFFF719FFFFF74FFFFFF736
S31520003330B1FFFFF7D5FF00BF80BD80B400AF00BF4F
S31520003340BD465DF8047B704778860020200B01205F
S3152000335080B483B000AF0346FB71FB7903F01F03F3
S31520003360012202FA03F1064A97F907305B0942F86F
S31520003370231000BF0C37BD465DF8047B704700BFA5
S3152000338000E100E080B483B000AF03463960FB71F2
S3152000339097F90730002B0BDA3B68DAB20C49FB7938
S315200033A003F00F03043B1201D2B20B441A7609E054
S315200033B03B68DAB2074997F907301201D2B20B44BB
S315200033C083F8002300BF0C37BD465DF8047B7047A9
S315200033D000ED00E000E100E080B582B000AF78604B
S315200033E00EE07B681B780D2B07D07B685A1C7A6011
S315200033F01B78184600F060F902E07B6801337B6099
S315200034007B681B78002BECD100BF00BF0837BD4678
S3152000341080BD80B586B000AF786000237B617B6875
S3152000342003F00F027B69591C796110498A5C07F108
S3152000343018010B4403F80C2C7B681B097B607B6806
S31520003440002BECD10AE07B69013B7B6107F10C0282
S315200034507B6913441B78184600F02EF97B69002BF4
S31520003460F1D100BF00BF1837BD4680BD6480002063
S3152000347080B59EB000AF78607B68002B02DA4FF0F3
S31520003480FF3300E001233B677B683A6F02FB03F3BF
S315200034907B6000237B6779681C4B83FB01239A1092
S315200034A0CB17D21A13469B0013445B00CA1A7B6FB4
S315200034B0591C796716498A5C07F178010B4403F891
S315200034C06C2C7B68114A82FB03129210DB17D31AED
S315200034D07B607B68002BDED13B6F002B0EDA2D2024
S315200034E000F0EAF80AE07B6F013B7B6707F10C02EC
S315200034F07B6F13441B78184600F0DEF87B6F002B99
S31520003500F1D100BF00BF7837BD4680BD67666666CD
S315200035106480002080B483B000AF10237B607B687A
S3152000352083F3118800BF00BF0C37BD465DF8047BCE
S31520003530704780B483B000AF30237B607B6883F311
S31520003540118800BF00BF0C37BD465DF8047B70476D
S3152000355080B584B000AF78600B48FFF73DFF0B4B7A
S315200035601B68002B02D1094B094A1A60074B1B68BE
S31520003570FB60064B1A687B681344044A1360FB6899
S3152000358018461037BD4680BDE07C0020088B002001
S31520003590200B012080B485B000AF786039603B688D
S315200035A003F5F95310337A6813607B681B68BB6098
S315200035B00023FB600AE0FB689B001A46BB681344A5
S315200035C01A4600231360FB680133FB60FB68332B2C
S315200035D0F1DDBB686FF016021A60BB6804331A4629
S315200035E003231360BB6884331A464FF0807313603D
S315200035F000BF1437BD465DF8047B704780B485B0A4
S3152000360000AF786039607B681B688033FB60FB689D
S315200036103A681A6000BF1437BD465DF8047B7047D0
S3152000362080B584B000AF1D48FDF75AFA3B1D1846F9
S31520003630FDF7A2FB40F24733BB803B1D19461748D6
S31520003640FDF72EFB164B174A1A6002216FF0010078
S31520003650FFF798FE144B154A1A6000216FF00400FC
S31520003660FFF790FE124B134A1A6002213220FFF711
S3152000367089FE3220FFF76CFE00210848FDF7C6FBC5
S3152000368001210648FDF78FFC012202210348FEF79F
S315200036905EFC00BF1037BD4680BD00BF000C004059
S315200036A038C00120655C00202CC00120615C002010
S315200036B008C101203F3A002080B582B000AF034602
S315200036C0FB71FB799BB219460748FCF774FF00BFD4
S315200036D080210548FDF75EF90346002BF8D000BF90
S315200036E000BF0837BD4680BD0010014080B500AF41
S315200036F01248FDF7A7FB03461A46114B1A60114BD9
S3152000370001221A60104B00221A60104B1B68002BF6
S3152000371006D00E4B1B680E4A1268002110469847A9
S31520003720084B00221A60084B1B68002B01D000F0C2
S315200037305DFA054B00221A6000BF80BD000C0040D8
S31520003740888600208486002078860020188800201D
S31520003750B887002080B500AF1248FDF773FB0346FB
S315200037601A46114B1A60114B01221A60104B002287
S315200037701A60104B5B68002B06D00E4B5B680E4A16
S315200037805268012110469847084B00221A60084BC0
S315200037901B68002B01D000F029FA054B00221A6085
S315200037A000BF80BD000C0040888600208486002053
S315200037B07886002018880020B887002080B500AFC2
S315200037C01248FDF73FFB03461A46114B1A60114B70
S315200037D001221A60104B00221A60104B9B68002BA6
S315200037E006D00E4B9B680E4A9268022110469847D7
S315200037F0084B00221A60084B1B68002B01D000F0F2
S31520003800F5F9054B00221A6000BF80BD000C004070
S31520003810888600208486002078860020188800204C
S31520003820B887002080B485B000AF78603960002367
S31520003830FB603B681B68BB6004E0BB68FB60BB6841
S315200038401B68BB60BB68002B05D0BB689A687B6889
S315200038509B689A42F1DD7B68BA681A60FB68002B88
S3152000386003D13B687A681A6002E0FB687A681A60BE
S3152000387000BF1437BD465DF8047B704780B485B021
S3152000388000AF786039600023FB603B681B68BB6033
S3152000389004E0BB68FB60BB681B68BB60BB68002B91
S315200038A005D0BB685A687B685B689A42F1DD7B6805
S315200038B0BA681A60FB68002B03D13B687A681A60E5
S315200038C002E0FB687A681A6000BF1437BD465DF8CF
S315200038D0047B704780B584B000AF78607B681B6836
S315200038E0FB60FB68002B04D0FB681A687B681A60B3
S315200038F00CE00948FFF770FD002202210748FFF778
S315200039000EFB0748FFF768FD30BFFDE7FB6818464A
S315200039101037BD4680BD00BFF87C00200004024061
S31520003920047D002080B584B000AF78607B681B687A
S31520003930FB60FB68002B04D0FB681A687B681A6062
S315200039400CE00948FFF748FD002202210748FFF74F
S31520003950E6FA0748FFF740FD30BFFDE7FB6818464B
S315200039601037BD4680BD00BFF87C00200004024011
S31520003970107D002080B483B000AF786039603B684A
S315200039801A687B681A603B687A681A6000BF0C3731
S31520003990BD465DF8047B704780B483B000AF786085
S315200039A039603B681A687B689A603B687A681A6057
S315200039B000BF0C37BD465DF8047B704780B485B0E8
S315200039C000AF78607B681B68FB60FB689A687B6841
S315200039D01A60FB6818461437BD465DF8047B7047AD
S315200039E080B485B000AF786039600023FB603B6807
S315200039F01B68BB6004E0BB68FB60BB681B68BB60E0
S31520003A00BB68002B03D0BA687B689A42F3D1BB68A7
S31520003A10002B0DD0FB68002B04D0BB681A68FB680E
S31520003A201A6003E0BB681A683B681A60012300E04D
S31520003A30002318461437BD465DF8047B704780B5D1
S31520003A4082B000AF02211E48FEF70BFB1C48FDF793
S31520003A50F9F903467B6007E01A48FFF73BFF034668
S31520003A6019491846FFF7DEFE164B1B68002B06D0B9
S31520003A70144B1B685A687B68D31A002BECDD114B5C
S31520003A801B68002B16D00E48FDF7DCF903463B6079
S31520003A900C4B1B685B683A689A4204DD00220221BF
S31520003AA00A48FFF73CFA074B1B685B68194604482F
S31520003AB0FDF707FD00F09AF800BF0837BD4680BD28
S31520003AC0000C0040808600207C86002000040240F6
S31520003AD00346024A136010DFF74600BFC487002062
S31520003AE00346054A1360054B5B68044A43F080533E
S31520003AF05360F74600BF00BFC487002000ED00E0FA
S31520003B0080B582B000AF7860094B5B68C3F30803C9
S31520003B10002B03D17868FFF7DBFF02E07868FFF718
S31520003B20DFFFFFF706FD00BF0837BD4680BD00BF9B
S31520003B3000ED00E090B585B000AF234B1C6823480C
S31520003B40FFF7C8FE0346E360E368BB60FFF7F1FCBE
S31520003B50BB68D868BB681969BB685B691A4600F000
S31520003B6015F9FFF7D7FC1A49B868FFF703FF194B79
S31520003B701B689B68DB687B60144B1B68002B0AD094
S31520003B807B68002BD9D0114B1B689A687B689B6891
S31520003B90D31A002BD1DD0F48FFF710FF03460E493D
S31520003BA01846FFF7F9FE0B4B1B68FB6003E0FB682A
S31520003BB01B691B68FB60FB681B69002BF7D1F86843
S31520003BC0FFF79EFFB9E700BF848000207C86002097
S31520003BD078800020808000207C80002080B500AF87
S31520003BE000F004F8FFF7A5FC30BFFBE780B582B0F4
S31520003BF000AF144B1B68DB687B60134B1B68002BE4
S31520003C001BD0124B1B68002B17D07B68002B07D0CC
S31520003C100D4B1B689A687B689B68D31A002B0CDABD
S31520003C200A48FFF7CBFE034606491846FFF7B4FEBF
S31520003C30044B1B681846FFF763FF00BF0837BD46D5
S31520003C4080BD00BF808000207C8600207C800020F4
S31520003C5080B588B000AFF860B9607A603B60EFF35A
S31520003C6012833B613B691B09012B14BF01230023EF
S31520003C70DBB2FB77FFF74EFC3A48FFF753FEB861FD
S31520003C80BB697A68DA60BB693A681A61BB69BA6A45
S31520003C905A61354B1B68002B04D1344B1B68DB68FB
S31520003CA05B6801E0324B1B68FA681A44BB695A60AC
S31520003CB0BB695A68BB68002B01DDBB6801E06FF069
S31520003CC000431A44BB699A602A48FDF7BBF80346AD
S31520003CD07B61BB695A687B69D31A002B16DD26499E
S31520003CE0B869FFF7CBFD244B1B685B687A699A425B
S31520003CF004DD002202212148FFF711F91E4B1B6823
S31520003D005B6819461B48FDF7DCFB21E01C49B869B6
S31520003D10FFF788FDFB7F002B1AD01A4B1B68002B60
S31520003D2016D0174B1B689A68174B1B68DB689B6875
S31520003D30D31A002B0CDA1348FFF740FE034612492C
S31520003D401846FFF729FE104B1B681846FFF7D8FECA
S31520003D50FB7F002B01D0FFF7ECFBBB691846203711
S31520003D60BD4680BD78800020848600208480002087
S31520003D7088860020000C0040808600200004024037
S31520003D807C8600207C8000208080002080B588B042
S31520003D9000AFF860B9607A60EFF312833B613B694C
S31520003DA01B09012B14BF01230023DBB2FB76FFF78F
S31520003DB0B1FBFB681B68FB61FB69002B37D003E076
S31520003DC0FB691B691B68FB61FB691B69002BF7D12B
S31520003DD0304B1B68FA699A4202D0FB7E002B07D132
S31520003DE0FB7E002B01D0FFF7A4FB4FF0FF334DE005
S31520003DF0FB685B68002B03D0FB685B6800221A61B6
S31520003E00244B1A68FB685A60224B1B68FA681A61B1
S31520003E10F869FFF775FE1F4B1B68DB68002B06D180
S31520003E20FB7E002B01D0FFF784FB00232EE0194BED
S31520003E301A68FB681A60FB7E002B05D0FB685B685E
S31520003E40012B01D0FFF775FBBB687968F8689847A6
S31520003E507861FFF75FFBFB6800221A60FB685B68EE
S31520003E60FB61FB69002B0BD0FB69012B08D0FB689B
S31520003E7000225A60FB6900221A61F869FFF740FEAA
S31520003E80FB7E002B01D0FFF754FB7B6918462037B9
S31520003E90BD4680BD8480002080B586B000AF7860A6
S31520003EA0EFF31283FB60FB681B09012B14BF012370
S31520003EB00023DBB2FB74FFF72DFB1F497868FFF761
S31520003EC08FFD0346002B06D11C497868FFF788FD35
S31520003ED00346002B04D01A497868FFF74BFD21E0F2
S31520003EE0184B1B687B611AE0174B1B687A699A424C
S31520003EF012D07B69DB687A689A420DD17B691A6990
S31520003F007B68DB689A4207D17B690022DA600C491C
S31520003F107868FFF72FFD05E07B699B687B617B69ED
S31520003F20002BE1D1FB7C002B01D0FFF702FB00BF69
S31520003F301837BD4680BD00BF808600207C860020C5
S31520003F4078800020808000208480002080B485B086
S31520003F5000AF7860EFF31283FB60FB681B09012B2F
S31520003F6004D0074B1B68DB685B6801E0054B1B68C8
S31520003F707A68136000BF1437BD465DF8047B70472E
S31520003F80848000208886002080B485B000AF7860C9
S31520003F90EFF31283FB60FB681B09012B04D0084B4F
S31520003FA01B68DB685B6801E0064B1B687A68126851
S31520003FB09B1A18461437BD465DF8047B704700BF30
S31520003FC0848000208886002080B584B000AFEFF37F
S31520003FD012837B607B681B09012B14BF01230023FE
S31520003FE0DBB2FB73FFF796FA0C48FCF72BFF034670
S31520003FF0BB60FB7B002B01D0FFF79BFAFB7B002BE2
S3152000400004D0074B1B68DB685B6801E0054B1B6827
S31520004010BA68D31A18461037BD4680BD000C00403A
S31520004020848000208886002080B582B000AF0023DF
S315200040307B6012E07B685A1C13465B001344DB004E
S31520004040444A991843487A6813465B001344DB00B8
S31520004050034419607B6801337B607B681C2BE9DD98
S315200040603C4B0022C3F8B82200237B6013E07B6818
S315200040705A1C13469B0013449B00374A991836480E
S315200040807A6813469B0013449B0003440833196047
S315200040907B6801337B607B68022BE8DD2E4B002298
S315200040A05A6400237B6030E02B497A6813469B00D4
S315200040B013449B000B4404337A681A607A681346CB
S315200040C09B0013449B00244A1A447B685B032349C4
S315200040D00B4419461046FFF75DFA7A6813469B0093
S315200040E013449B001C4A13441D491846FFF786FAC1
S315200040F019497A6813469B0013449B000B441033DE
S3152000410000221A607B6801337B607B68032BCBDD42
S31520004110144B4FF0FF325A60124B00229A60114B1B
S3152000412000221A610F4B0022DA600F48FFF754F97C
S315200041300E48FFF751F90E48FFF74EF90A48FFF7E8
S315200041404BF90948FFF748F9FFF76AFA00BF083725
S31520004150BD4680BD38880020C8870020108B0020EF
S31520004160353B0020248800201C7D0020207D002057
S315200041702C7D002080B586B000AFF860B96013466C
S31520004180FB71FB79022B41D8EFF312833B613B692C
S315200041901B09012B14BF01230023DBB2FB75FFF79C
S315200041A0B9F9FB79022B0ED0022B10DC002B02D0A2
S315200041B0012B04D00BE0174B174A1A6014E0174B5B
S315200041C0174A1A6010E0174B174A1A600CE0174876
S315200041D0FFF702F9002202211548FEF7A0FE154836
S315200041E0FFF7FAF830BFFDE7FB791349FA6841F883
S315200041F02320FB791149BA6841F82320FB68012264
S315200042005A60FB7D002B01D0FFF793F900BF1837CA
S31520004210BD4680BDD4C00120ED36002090C00120CF
S31520004220553700209CC00120BD370020F87C002097
S3152000423000040240407D0020B88700201888002016
S3152000424080B586B002AFF860B9607A60FFF762F990
S31520004250FFF7EAFEBB68002B16D00F48FCF7F2FDED
S3152000426003461A460D4B1A600D4B01221A607B68D5
S315200042700093BB68FA6800210020FFF7E9FC084B91
S3152000428000221A60FFF7B2FCFFF7A8FC00231846AD
S315200042901037BD4680BD00BF000C00408886002038
S315200042A08486002080B586B000AF7860396007F13B
S315200042B00C031A460A490B48FFF768FD0A4B1A46B3
S315200042C00A490B48FFF762FD07F10C0303331A4630
S315200042D006490748FFF75AFD00BF1837BD4680BD7F
S315200042E01D60002008850020607D0020FB5A0020EC
S315200042F0E880002080B584B002AF786039600E4B2C
S315200043001A460E490E48FFF741FD3A680D490C48FA
S31520004310FFF73CFD0C4B1A4608490948FFF736FDC6
S315200043203B680093094B7A6800210020FFF790FC38
S3152000433000BF0837BD4680BD747D0020FB5A002093
S31520004340E8800020515B00207C7D00201144002065
S3152000435080B586B000AF78603960002215491648CE
S31520004360FFF714FD002215491548FFF70FFD154BE1
S315200043701A4615491248FFF709FD01233B7301230D
S315200043807B730623BB734823FB7365233B746C2323
S315200043907B746C23BB746F23FB7400233B7507F17E
S315200043A00C031A4609490448FFF7F0FC00BF1837EA
S315200043B0BD4680BDDD5D002008850020555A0020C1
S315200043C0E8800020807D0020FB5A0020E760002046
S315200043D080B500AF002208490848FFF7CBFE01222E
S315200043E007490848FFF7C6FE002207490748FFF796
S315200043F027FF0023184680BD875B0020E880002029
S31520004400955E0020088500205143002088800020EA
S3152000441080B586B002AF786039603B68FB73FB7B62
S315200044202D2B0FD17B681B69002B0BD17B681B6959
S315200044307A681344FA7B1A767B681B695A1C7B6858
S315200044401A6110E0FB7B392B0DD8FB7B2F2B0AD969
S315200044507B681B697A681344FA7B1A767B681B692A
S315200044605A1C7B681A61FB7B613B152B00F2488145
S3152000447001A252F823F000BF6545002035460020F2
S31520004480014700209B4600200147002001470020CD
S315200044900147002001470020014700200147002056
S315200044A0C745002001470020014700200147002082
S315200044B00147002001470020014700200147002036
S315200044C0014700200147002001470020D144002059
S315200044D07B681833184602F00BFE02467B689A600A
S315200044E07B689B68132B23DC7B689B68002B1FDD76
S315200044F07B689B680093844B844A00210020FFF749
S31520004500A7FB834B1A4683498348FFF73FFC7B680A
S3152000451018331A467F498048FFF738FC7F4B1A46E6
S315200045207C497D48FFF732FC7B6800221A61E7E070
S315200045307B4B1A4677497848FFF728FC794B1A4671
S3152000454074497548FFF722FC7B6818331A4671496F
S315200045507148FFF71BFC714B1A466E496E48FFF7F0
S3152000456015FCCDE07B68183300936F4B674A00211A
S315200045700020FFF76DFB7B685B69002B03D07B680F
S3152000458000225A6102E07B6801225A617B6803F1AE
S3152000459018007B685B69654A322102F0E1FD644BB5
S315200045A01A465C495C48FFF7F1FB7B6818331A46CC
S315200045B058495948FFF7EAFB5E4B1A465549564873
S315200045C0FFF7E4FB9CE07B681833184602F090FD69
S315200045D002467B689A607B689B68052B23DC7B6898
S315200045E09B68002B1FD07B689B680093524B474AE1
S315200045F000210020FFF72CFB504B1A464549464820
S31520004600FFF7C4FB7B6818331A4642494248FFF736
S31520004610BDFB424B1A463F493F48FFF7B7FB7B6835
S3152000462000221A616CE0464B1A463A493A48FFF78F
S31520004630ADFB65E07B681833184602F059FD02464B
S315200046407B689A607B689B68002B1FDB7B689B6876
S3152000465000933C4B2D4A00210020FFF7F9FA3A4BF4
S315200046601A462C492C48FFF791FB7B6818331A46CB
S3152000467028492948FFF78AFB284B1A462549264808
S31520004680FFF784FB7B6800221A6139E02F4B1A461C
S3152000469020492148FFF77AFB32E07B681833184619
S315200046A002F026FD02467B689A607B689B68002B99
S315200046B01FDB7B689B680093224B144A0021002055
S315200046C0FFF7C6FA224B1A4612491348FFF75EFB3C
S315200046D07B6818331A460F490F48FFF757FB0F4BD5
S315200046E01A460C490C48FFF751FB7B6800221A61D9
S315200046F005E0164B1A4607490748FFF747FB00BF58
S3152000470000BF1037BD4680BDF147002090860020AF
S31520004710947D0020FB5A0020E8800020A47D002004
S31520004720A87D0020D87D002055470020EC7D002064
S31520004730F07D00207C7D0020B9470020047E0020EB
S31520004740187E00209D4700203C7E0020607E0020B1
S31520004750807E002080B483B000AF786039607B68AB
S315200047609B68002B03D07B6800229A6002E07B685E
S3152000477001229A6000BF0C37BD465DF8047B704766
S3152000478080B483B000AF786039607B683A68DA60BD
S3152000479000BF0C37BD465DF8047B704780B483B0FC
S315200047A000AF786039607B683A681A6100BF0C37C1
S315200047B0BD465DF8047B704780B483B000AF786057
S315200047C039607B683A689A6100BF0C37BD465DF850
S315200047D0047B704780B483B000AF786039607B6813
S315200047E03A689A6000BF0C37BD465DF8047B704777
S315200047F080B483B000AF786039603B68002B05DD5C
S315200048003B68132B02DC7B683A68DA6000BF0C3702
S31520004810BD465DF8047B704780B582B000AF7860F6
S315200048207B680E4A93420AD101214FF0007002F0B4
S315200048308FFA00214FF0007002F08AFA09E0012178
S315200048404FF0806002F084FA00214FF0806002F081
S315200048507FFA00BF0837BD4680BD00BF0064004018
S3152000486080B485B000AF786039600023FB730023E5
S31520004870BB607B681B6823F002027B681A607B683A
S315200048801B6843F001027B681A6002E0BB680133B3
S31520004890BB607B685B6803F00103012B04D0BB6817
S315200048A04FF6FF729342F1D17B685B6803F00103F8
S315200048B0012B02D00023FB739CE03B689B79012BE4
S315200048C006D17B681B6843F080027B681A6005E08E
S315200048D07B681B6823F080027B681A603B68DB7963
S315200048E0012B06D17B681B6843F040027B681A6067
S315200048F005E07B681B6823F040027B681A603B68F2
S315200049001B7A012B06D17B681B6843F020027B684B
S315200049101A6005E07B681B6823F020027B681A601A
S315200049203B685B7A012B06D17B681B6843F010023B
S315200049307B681A6005E07B681B6823F010027B68A1
S315200049401A603B689B7A012B06D17B681B6843F073
S3152000495008027B681A6005E07B681B6823F0080262
S315200049607B681A603B68DB7A012B06D17B681B6863
S3152000497043F004027B681A6005E07B681B6823F01D
S3152000498004027B681A603B689B789A073B68DB7851
S315200049901B061A433B681B791B041A433B685B7949
S315200049A01B051A433B681B88013B1A437B68DA6167
S315200049B07B681B6823F001027B681A600023BB60BA
S315200049C002E0BB680133BB607B685B6803F00103D0
S315200049D0012B04D1BB684FF6FF729342F1D17B685D
S315200049E05B6803F00103012B02D10023FB7301E076
S315200049F00123FB73FB7B18461437BD465DF8047B09
S31520004A00704790B484B000AF78600023FB607B6869
S31520004A109B7A1A4601239340FB605A4BD3F8003207
S31520004A20584A43F00103C2F80032564BD3F81C22F1
S31520004A30FB68DB4353491340C1F81C327B681B7B60
S31520004A40002B29D14F4BD3F80C22FB68DB434D4971
S31520004A501340C1F80C327B68DB881B047A685288C5
S31520004A60144648497A68927A104643EA040200F1CD
S31520004A70480341F833207B689B881B047A68128898
S31520004A80144640497A68927A104643EA040200F1B5
S31520004A904803DB000B445A607B681B7B012B28D123
S31520004AA0384BD3F80C223749FB681343C1F80C3234
S31520004AB07B681B881B047A685288144631497A68B9
S31520004AC0927A104643EA040200F1480341F8332063
S31520004AD07B689B881B047A68D288144629497A68A1
S31520004AE0927A104643EA040200F14803DB000B44A5
S31520004AF05A607B68DB7A002B09D1224BD3F804223B
S31520004B00FB68DB431F491340C1F8043207E01D4B05
S31520004B10D3F804221B49FB681343C1F804327B688F
S31520004B201B89002B08D1174BD3F81422FB68DB43D3
S31520004B3014491340C1F814327B681B89012B07D115
S31520004B40104BD3F814220F49FB681343C1F81432D3
S31520004B507B685B7B012B07D10A4BD3F81C220949C2
S31520004B60FB681343C1F81C32064BD3F80032054AC2
S31520004B7023F00103C2F8003200BF1037BD4690BCB7
S31520004B80704700BF0064004080B483B000AF7860F7
S31520004B907B6800229A717B680022DA717B6800228A
S31520004BA01A727B6800225A727B6800229A727B688E
S31520004BB00022DA727B6800229A707B680022DA7003
S31520004BC07B6803221A717B6802225A717B68012254
S31520004BD01A8000BF0C37BD465DF8047B704780B451
S31520004BE083B000AF0346FB71144BD3F80032134A4F
S31520004BF043F00103C2F80032104BD3F800320F4ABB
S31520004C0023F47C5323F00E03C2F800320B4BD3F867
S31520004C100022FB791B0209491343C1F80032074BD6
S31520004C20D3F80032054A23F00103C2F8003200BF50
S31520004C300C37BD465DF8047B704700BF006400401A
S31520004C4080B483B000AF78600B46FB70FB78002BF6
S31520004C5006D07B681B6843F480327B681A6005E0C7
S31520004C607B681B6823F480327B681A6000BF0C3790
S31520004C70BD465DF8047B704780B483B000AF786092
S31520004C800B46FB70FB78002B1ED07B681B6843F01D
S31520004C9080027B681A607B68D3F8843143F4807283
S31520004CA07B68C3F884217B68D3F8943143F48072FF
S31520004CB07B68C3F894217B68D3F8A43143F48072CF
S31520004CC07B68C3F8A4211DE07B681B6823F0800263
S31520004CD07B681A607B68D3F8843123F480727B6802
S31520004CE0C3F884217B68D3F8943123F480727B68DF
S31520004CF0C3F894217B68D3F8A43123F480727B68AF
S31520004D00C3F8A42100BF0C37BD465DF8047B70476D
S31520004D1080B485B000AF786039600023FB737B6870
S31520004D209B6803F08063B3F1806F02D10023FB738D
S31520004D3015E07B689B6803F00063B3F1006F02D136
S31520004D400123FB730BE07B689B6803F08053B3F170
S31520004D50805F02D10223FB7301E00423FB73FB7BFC
S31520004D60042B00F09F80FB7B7A6818331B011344C9
S31520004D701A68FB7B02F00102796818331B010B4489
S31520004D801A603B681B7A002B13D1FB7B7A68183399
S31520004D901B01134419683B681B685B053A68527A05
S31520004DA01A43FB7B0A43796818331B010B441A60AC
S31520004DB015E0FB7B7A6818331B01134419683B689E
S31520004DC05B68DB003A68127A13433A68527A1A43D0
S31520004DD0FB7B0A43796818331B010B441A603B6836
S31520004DE09B7A03F00F03DAB23B689A72FB7B7A68F0
S31520004DF018331B01134404331A68FB7B22F00F027D
S31520004E00796818331B010B4404331A60FB7B7A68DC
S31520004E1018331B01134404331A683B689B7A1946DE
S31520004E20FB7B0A43796818331B010B4404331A6051
S31520004E303B689B7B1A063B685B7B1B041A433B68DB
S31520004E401B7B1B021A433B68DB7A1946FB7B0A4312
S31520004E5079681B010B4403F5C4731A603B689B7C7D
S31520004E601A063B685B7C1B041A433B681B7C1B02AF
S31520004E701A433B68DB7B1946FB7B0A4379681B0197
S31520004E800B4403F5C6731A60FB7B7A6818331B0143
S31520004E9013441A68FB7B42F00102796818331B0120
S31520004EA00B441A60FB7B18461437BD465DF8047B1D
S31520004EB0704780B485B000AF78600B46FB70002346
S31520004EC0FB60FB78022B12D0022B16DC002B02D0C3
S31520004ED0012B06D011E07B689A68314B1340FB60AA
S31520004EE00EE07B689A682F4B1340FB6008E07B68D6
S31520004EF09A682D4B1340FB6002E00023FB6000BF45
S31520004F00FB68294A93423DD0FB68274A93423CD806
S31520004F10FB68264A93422CD0FB68244A934234D815
S31520004F20FB68204A93422AD0FB681E4A93422CD81B
S31520004F30FB681F4A934219D0FB681D4A934224D826
S31520004F40FB68174A934217D0FB68154A93421CD830
S31520004F50FB68002B04D0FB68164A934203D014E06A
S31520004F600223FB6014E00023FB6011E00023FB60BA
S31520004F700EE00023FB600BE00123FB6008E0012329
S31520004F80FB6005E00123FB6002E00023FB6000BF1D
S31520004F90FB68DBB218461437BD465DF8047B7047C4
S31520004FA003000004000300080000031000000110A5
S31520004FB0000100080100000480B483B000AF7860CF
S31520004FC00B46FB70FB78022B14D0022B19DC002B2E
S31520004FD002D0012B07D014E07B689B6843F0800247
S31520004FE07B689A600EE07B689B6843F400427B688E
S31520004FF09A6007E07B689B6843F400027B689A60AE
S3152000500000E000BF00BF0C37BD465DF8047B70474B
S3152000501080B485B000AFF8600B467A60FB72FB7AED
S31520005020FA681B331B0113441B68DBB203F004032D
S31520005030DAB27B681A727B681B7A002B0BD1FB7A5B
S31520005040FA681B331B0113441B685B0DC3F30A026A
S315200050507B681A600AE0FB7AFA681B331B0113444B
S315200050601B68DB0823F060427B685A60FB7AFA688B
S315200050701B331B0113441B68DBB203F00203DAB2B5
S315200050807B685A72FB7AFA681B331B01134404337C
S315200050901B68DBB203F00F03DAB27B689A72FB7AE5
S315200050A0FA681B331B01134404331B681B0ADAB24C
S315200050B07B68DA74FB7AFA681B01134403F5DC7308
S315200050C01B68DAB27B68DA72FB7AFA681B01134432
S315200050D003F5DC731B681B0ADAB27B681A73FB7A4A
S315200050E0FA681B01134403F5DC731B681B0CDAB248
S315200050F07B685A73FB7AFA681B01134403F5DC7349
S315200051001B681B0EDAB27B689A73FB7AFA681B015E
S31520005110134403F5DE731B68DAB27B68DA73FB7A15
S31520005120FA681B01134403F5DE731B681B0ADAB207
S315200051307B681A74FB7AFA681B01134403F5DE7345
S315200051401B681B0CDAB27B685A74FB7AFA681B015F
S31520005150134403F5DE731B681B0EDAB27B689A7460
S31520005160FB7A002B06D1FB68DB6843F02002FB6844
S31520005170DA6005E0FB681B6943F02002FB681A61D0
S3152000518000BF1437BD465DF8047B704780B483B0FA
S3152000519000AF78600B46FB70FB78002B06D17B684E
S315200051A0DB6843F020027B68DA6005E07B681B69D8
S315200051B043F020027B681A6100BF0C37BD465DF8BC
S315200051C0047B704780B485B000AF78600B46FB70D7
S315200051D00023FB73FB78002B06D17B68DB68DBB2F0
S315200051E003F00303FB730BE0FB78012B06D17B68EE
S315200051F01B69DBB203F00303FB7301E00023FB739F
S31520005200FB7B18461437BD465DF8047B704780B497
S3152000521085B000AF78600B46FB700023FB734FF61A
S31520005220FF73BB60FB78002B20D17B681B6823F0C3
S31520005230030343F001027B681A6002E0BB68013B6E
S31520005240BB607B685B6803F00303012B02D0BB685D
S31520005250002BF3D17B685B6803F00303012B02D09C
S315200052600023FB734AE00123FB7347E0FB78012B05
S315200052701ED17B681B6823F003027B681A6002E05C
S31520005280BB68013BBB607B685B6803F00303002BB4
S3152000529002D0BB68002BF3D17B685B6803F0030365
S315200052A0002B02D00023FB7328E00123FB7325E0AB
S315200052B0FB78022B20D17B681B6823F0030343F085
S315200052C002027B681A6002E0BB68013BBB607B6818
S315200052D05B6803F00303022B02D0BB68002BF3D1DB
S315200052E07B685B6803F00303022B02D00023FB7369
S315200052F004E00123FB7301E00023FB73FB7B1846CC
S315200053001437BD465DF8047B704780B485B000AF86
S3152000531078600023FB737B681B6823F0030343F04C
S3152000532002027B681A607B685B6803F00303022B2A
S3152000533001D10123FB73FB7B18461437BD465DF86C
S31520005340047B704780B485B000AF78604FF6FF735A
S31520005350FB600023FB727B681B6823F002027B68DC
S315200053601A6002E0FB68013BFB607B685B6803F028
S315200053700203022B02D1FB68002BF3D17B685B680A
S3152000538003F00203022B01D00123FB72FB7A18469D
S315200053901437BD465DF8047B704780B485B000AFF6
S315200053A078600023FB737B689B69DBB203F0700394
S315200053B0FB73FB7B18461437BD465DF8047B7047AC
S315200053C080B485B000AF78600023FB737B689B694F
S315200053D01B0EFB73FB7B18461437BD465DF8047B1A
S315200053E0704780B485B000AF78600023FB737B687C
S315200053F09B691B0CFB73FB7B18461437BD465DF877
S31520005400047B704780B485B000AFF860B96013465E
S31520005410FB71FB79002B06D0FB685A69BB681A43DF
S31520005420FB685A6106E0FB685A69BB68DB431A4091
S31520005430FB685A6100BF1437BD465DF8047B704790
S3152000544080B485B000AF786039600023FB733B6879
S3152000545003F47003002B0DD07B689A693B681340D8
S31520005460C3F31303002B02D00123FB7348E0002370
S31520005470FB7345E03B6803F08073002B0DD07B68FF
S315200054805A683B681340C3F31303002B02D0012351
S31520005490FB7335E00023FB7332E03B6803F00063C7
S315200054A0002B0DD07B689A683B681340C3F3130327
S315200054B0002B02D00123FB7322E00023FB731FE0A5
S315200054C03B6803F00073002B0DD07B68DA683B68DD
S315200054D01340C3F31303002B02D00123FB730FE009
S315200054E00023FB730CE07B681A693B681340C3F307
S315200054F01303002B02D00123FB7301E00023FB736F
